:100000000C9434000C943E000C943E000C943E0082
:100010000C943E000C943E000C943E000C943E0068
:100020000C943E000C943E000C943E000C943E0058
:100030000C943E000C943E000C943E000C943E0048
:100040000C943E000C943E000C943E000C943E0038
:100050000C943E000C943E000C943E000C943E0028
:100060000C943E000C943E0011241FBECFEFD8E04C
:10007000DEBFCDBF0E9440000C945A000C940000DB
:1000800080E284B990E22D9A2FEF39E648E12150C1
:1000900030404040E1F700C0000085B1892785B9B4
:1000A0002FEF31EE44E0215030404040E1F700C0F6
:0800B0000000E9CFF894FFCF36
:00000001FF
